:020000040800F2
:1000000000000A208D3500082D3500082F35000826
:100010003135000833350008353500080000000090
:10002000000000000000000000000000373500085C
:1000300039350008000000003B3500083D35000858
:10004000DD350008DD350008DD350008DD35000848
:10005000DD350008DD350008DD350008DD35000838
:10006000DD350008DD350008DD350008DD35000828
:10007000DD350008DD350008DD350008DD35000818
:10008000DD350008DD350008DD350008DD35000808
:10009000DD350008DD350008DD350008DD350008F8
:1000A000DD350008DD350008DD350008DD350008E8
:1000B000DD350008DD350008DD350008DD350008D8
:1000C000DD350008DD350008DD350008DD350008C8
:1000D000DD350008DD350008DD350008DD350008B8
:1000E000DD350008DD350008DD350008DD350008A8
:1000F000DD350008DD350008DD35000800000000B2
:10010000DD350008DD350008DD350008DD35000887
:10011000DD350008DD350008DD350008DD35000877
:10012000DD350008DD350008DD350008DD35000867
:10013000DD350008DD350008DD350008DD35000857
:10014000DD350008DD350008DD350008DD35000847
:10015000DD350008DD350008DD350008DD35000837
:10016000DD350008DD350008DD350008DD35000827
:10017000DD350008DD35000800000000000000004B
:10018000DD350008DD350008DD350008DD35000807
:10019000DD350008DD35000800000000000000002B
:1001A0000000000000000000DD350008DD3500081B
:1001B000DD350008DD350008DD35000800000000F1
:1001C00010B5054C237833B9044B13B10448AFF391
:1001D00000800123237010BD1000002000000000EB
:1001E0003836000808B5034B1BB103490348AFF389
:1001F000008008BD00000000140000203836000810
:1002000053B94AB9002908BF00281CBF4FF0FF317D
:100210004FF0FF3000F072B9ADF1080C6DE904CE7B
:1002200000F006F8DDF804E0DDE9022304B07047D1
:100230002DE9F047089E04468846002B4BD18A42A0
:10024000154667D9B2FA82F24AB1C2F1200701FA23
:1002500002F320FA07F7954047EA030894404FEA73
:10026000154E230CB8FBFEF71FFA85FC0EFB178812
:1002700043EA084307FB0CF1994209D9EB1807F14F
:10028000FF3080F01B81994240F21881023F2B44DD
:100290005B1AA4B2B3FBFEF00EFB103344EA034436
:1002A00000FB0CFCA44509D92C1900F1FF3380F0A8
:1002B0000781A44540F2048102382C4440EA0740FB
:1002C000A4EB0C0400271EB1D4400023C6E9004370
:1002D0003946BDE8F0878B4209D9002E00F0EB804B
:1002E0000027C6E9000138463946BDE8F087B3FA71
:1002F00083F7002F47D18B4202D3824200F2FA806B
:10030000841A61EB030301209846002EE0D0C6E971
:100310000048DDE702B9FFDEB2FA82F2002A40F0BF
:100320008F80491B4FEA154E1FFA85F80127B1FB54
:10033000FEFC230C0EFB1C1143EA014308FB0CF1ED
:10034000994207D9EB180CF1FF3002D2994200F222
:10035000CD808446591AA3B2B1FBFEF00EFB1014F7
:1003600043EA044408FB00F8A04507D92C1900F122
:10037000FF3302D2A04500F2B6801846A4EB080471
:1003800040EA0C409FE7C7F1200CBB4022FA0CFE6C
:100390004EEA030E01FA07F420FA0CF521FA0CF3E9
:1003A0004FEA1E482543B3FBF8F92C0C08FB193320
:1003B0001FFA8EFA44EA034309FB0AF49C4202FA4C
:1003C00007F200FA07F10BD91EEB030309F1FF3026
:1003D00080F087809C4240F28480A9F10209734436
:1003E0001B1BADB2B3FBF8F008FB103345EA034426
:1003F00000FB0AFAA24508D91EEB040400F1FF3302
:100400006BD2A24569D90238744440EA0940A0FB86
:100410000289A4EB0A044C45C2464B4654D351D042
:10042000002E69D0B1EB0A0564EB030404FA0CFC5E
:10043000FD40FC404CEA0505C6E90054002747E7AB
:10044000C2F1200320FA03F7954001FA02F021FAE5
:1004500003F34FEA154E3843010CB3FBFEF71FFAC6
:1004600085F80EFB173341EA034107FB08F38B4283
:1004700004FA02F407D9691807F1FF3C2FD28B4226
:100480002DD9023F2944CB1A81B2B3FBFEF00EFBFB
:10049000103341EA034100FB08F38B4207D9691886
:1004A00000F1FF3C17D28B4215D902382944C91AF2
:1004B00040EA07473BE73746304609E70746E7E6A5
:1004C0001846FBE64145ABD2B8EB020A69EB0E02D7
:1004D00001381346A4E76046E9E7184695E7674602
:1004E000D1E781467CE702382C4447E7ACF1020CA7
:1004F0002B442FE7384608E73746E9E6704700BF48
:10050000104B1B680BB90120704710B504464FF41F
:100510007A70B0FBF3F30C4A1068B0FBF3F000F014
:1005200091F868B90F2C01D901200AE00022214678
:100530004FF0FF3000F052F8024B5C60002000E00A
:10054000012010BD000000200800002010B503208D
:1005500000F032F80020FFF7D3FF10B1012420464D
:1005600010BD044602F014FFF9E70000034A1368C7
:10057000034909680B441360704700BF2C0000203A
:1005800000000020014B1868704700BF2C000020BD
:1005900038B50446FFF7F6FF0546B4F1FF3F02D039
:1005A000044B1B681C44FFF7EDFF401BA042FAD32D
:1005B00038BD00BF00000020074AD36823F4E06381
:1005C0001B041B0C000200F4E060184340F0BF6005
:1005D00040F40030D060704700ED00E030B4174BBD
:1005E000DB68C3F30223C3F10704042C28BF0424EF
:1005F0001D1D062D18D9033B4FF0FF3505FA04F4F5
:1006000021EA0401994005FA03F322EA030319439E
:1006100000280BDB0901C9B200F1604000F5614020
:1006200080F8001330BC70470023E5E700F00F00AE
:100630000901C9B2024B1954F4E700BF00ED00E014
:1006400014ED00E00138B0F1807F0AD2064B58600B
:10065000064AF02182F823100020986007221A60D1
:1006600070470120704700BF10E000E000ED00E09F
:10067000F0B583B0002336E0072400E00024B44046
:100680003C430235644E46F82540644C2568D4430B
:1006900004EA05064F6817F4803F01D042EA0506D8
:1006A0005E4D2E606D6804EA05064F6817F4003F42
:1006B00001D042EA0506594D6E60AD6804EA0506B0
:1006C0004F6817F4801F01D042EA0506534DAE6013
:1006D000ED682C404E6816F4001F01D042EA050474
:1006E0004E4AD46001330A6832FA03F400F0928073
:1006F00001249C402240F5D04D686E1E012E03D986
:10070000112D01D0122D12D186685F000325BD4046
:1007100026EA0506CD68BD4035438560466826EA71
:1007200004064D68C5F300149C4034434460C5681A
:100730005F000324BC40E44325408E68BE402E4346
:10074000C6604D68022D01D0122D13D1DE08083687
:1007500050F826E003F007054FEA850C0F2505FA4F
:100760000CF52EEA050E0D6905FA0CF545EA0E05A5
:1007700040F8265005682C404D6805F00305BD4043
:100780002C4304604C6814F0805FABD0244C256E81
:1007900045F001052566246E04F001040194019CD6
:1007A0009D08AE1C1C4C54F8267003F00304A600F0
:1007B0000F24B44027EA0407B0F1904F3FF45EAF36
:1007C000184CA0421AD004F58064A04218D004F559
:1007D0008064A04216D004F58064A04214D004F5D1
:1007E0008064A04212D004F58064A04210D004F5C9
:1007F0008064A0423FF440AF082440E701243EE774
:1008000002243CE703243AE7042438E7052436E7CA
:10081000062434E703B0F0BD0000014000040140AD
:1008200000100240000400480369194201D1002071
:100830007047012070470AB9816270478161704733
:10084000F0B58BB0002800F091800446056890F860
:10085000BD3323B3032384F8BD33EB6B13F4807FE4
:1008600001D100232361206802F029FB254655F8B9
:10087000107B6E460FCD0FC60FCD0FC695E8030057
:1008800086E80300231D0ECB384602F0DFFA58B18C
:10089000022384F8BD33012528460BB0F0BD80F853
:1008A000BC3302F0EFFDD5E70021206802F00DFB1C
:1008B000002315E0D900C81A82002244012082F8E2
:1008C0003D0082F83C30A2F84230002082F83F0020
:1008D00050649064CA1A9100214408650133DBB268
:1008E0006568AB42E6D3002315E0D800C11A8A0040
:1008F0002244002182F8FD1182F8FC3182F8FF11B8
:10090000C2F80412C2F80812C21A90002044C0F8BB
:1009100010120133DBB29D42E7D8254655F8107B13
:100920006E460FCD0FC60FCD0FC695E8030086E8C3
:100930000300231D0ECB384602F00EFB054660B9BE
:10094000002384F83830012384F8BD33636A012B17
:1009500008D0206802F0B4FB9EE7022384F8BD3380
:10096000012599E7204600F003F8F2E7012593E717
:10097000034602680121C0F8FC13002083F8F40349
:10098000936943F000639361536D43F0805343F0E8
:1009900003035365704700000A4B1B6803F4C063F0
:1009A000B3F5806F0AD0074BD3F8803013F4807F03
:1009B00001D1002070474FF4007070474FF4806001
:1009C000704700BF00700040002838D13E4B1B68C4
:1009D00003F4C063B3F5806F08D03B4AD2F880308F
:1009E00023F48073C2F8803000207047364AD2F872
:1009F000803023F48073C2F88030136823F4C0631E
:100A000043F400731360314B1A68322303FB02F383
:100A10002F4AA2FB03239B0C013300E0013B2A4A2F
:100A2000526912F4806F01D0002BF7D1264B5B691D
:100A300013F4806F01D10020704703207047B0F598
:100A4000007F08D0204A136823F4C06343F4806316
:100A50001360002070471C4B1B6803F4C063B3F5A0
:100A6000806F08D0184AD2F8803043F48073C2F8FF
:100A7000803000207047144AD2F8803043F48073ED
:100A8000C2F88030136823F4C06343F4007313602A
:100A90000E4B1A68322303FB02F30D4AA2FB032319
:100AA0009B0C013300E0013B074A526912F4806F4E
:100AB00001D0002BF7D1044B5B6913F4806F01D197
:100AC000002070470320704700700040080000209D
:100AD00083DE1B43024A536843F4806353607047CC
:100AE00000700040024A536843F40073536070473B
:100AF000007000401C4BDB6803F00303012B1CD08B
:100B00000023194AD26802F00302022A28D0032ADD
:100B100028D0154AD068C0F303100130D168C1F362
:100B2000062103FB01F3B3FBF0F0D368C3F3416389
:100B300001335B00B0FBF3F070470B4B1B6813F005
:100B4000080F08D1084BD3F89430C3F30323074AA6
:100B500052F82330D5E7044B1B68C3F30313F6E7C1
:100B6000034BD6E7034BD4E7001002406036000881
:100B70000024F40000127A0030B583B005461F4B04
:100B80009B6D13F0805F0AD0FFF706FFB0F5007F82
:100B900016D07F2D1ED8702D2BD000211BE0174CB6
:100BA000A36D43F08053A365A36D03F080530193BD
:100BB000019BFFF7F1FEA36D23F08053A365E5E7EA
:100BC000802D03D9A02D03D9022104E0002102E0E9
:100BD000012100E002210A4A136823F00F030B43AE
:100BE0001360136803F00F038B4204D0012003B09D
:100BF00030BD0121EFE70020F9E700BF00100240FF
:100C000000200240284A9368D26802F0030213F0E1
:100C10000C030AD00C2B06D0042B1FD0082B20D09D
:100C20000020024610E0012AF6D11F4A126812F095
:100C3000080F0CD11C4AD2F89420C2F303221B499E
:100C400051F8222043B100200C2B0DD07047164ADA
:100C50001268C2F30312F2E71046F5E714480022C7
:100C6000F2E714480022EFE70F4BDB6803F00303C1
:100C7000022B15D0032B15D00B4BD868C0F30310F3
:100C80000130D968C1F3062102FB01F2B2FBF0F298
:100C9000D868C0F3416001304000B2FBF0F0D5E706
:100CA000034AE9E7034AE7E700100240603600081C
:100CB0000024F40000127A00002800F02D83F0B523
:100CC00083B00446AF4B9D6805F00C05DE6806F066
:100CD0000306036813F0100F5BD0E5B10C2D18D09C
:100CE000A369002B00F0BC80A64A136843F00103FF
:100CF0001360FFF747FC0746A24B1B6813F0020F77
:100D000040F09B80FFF73EFCC01B0228F4D9032370
:100D10000EE3012EE4D19B4B1B6813F0020F03D0AE
:100D2000A369002B00F0FB82206A964B1B6813F02E
:100D3000080F5CD0934B1B6803F0F00398425DD81A
:100D4000904B1A6842F008021A601A6822F0F0020A
:100D5000216A0A431A605A6822F47F42E16942EA32
:100D600001225A60002D61D0FFF74CFF854B9B6834
:100D7000C3F30313844AD35C03F01F03D840834BAF
:100D80001860834B1868FFF7BBFB0346002840F050
:100D9000CF82236813F0010F00F08180082D75D0F9
:100DA0000C2D71D06368B3F5803F00F09780B3F5E8
:100DB000A02F00F09980734B1A6822F480321A60D9
:100DC0001A6822F480221A606368002B00F0998070
:100DD000FFF7D8FB07466B4B1B6813F4003F5ED14F
:100DE000FFF7D0FBC01B6428F5D90323A0E2654BB5
:100DF000D3F894301B0903F0F0039FE7FFF7BCFE24
:100E0000002840F08E825F4B1A6842F008021A6098
:100E10001A6822F0F002216A0A431A605A6822F422
:100E20007F42E16942EA01225A609DE7206AFFF7AA
:100E3000A3FE002898D001237AE2524B1A6842F0B0
:100E400008021A601A6822F0F002216A0A431A6046
:100E50005A6822F47F42E16942EA01225A6098E727
:100E6000484A136823F001031360FFF78BFB074622
:100E7000444B1B6813F0020F8BD0FFF783FBC01BA2
:100E80000228F5D9032353E2032E8BD13D4B1B6877
:100E900013F4003F03D06368002B00F04482236802
:100EA00013F0020F4FD0042D3CD00C2D38D0E36846
:100EB000002B78D0334A136843F480731360FFF734
:100EC00061FB06462F4B1B6813F4806F62D1FFF75E
:100ED00059FB801B0228F5D9032329E2294A13680C
:100EE00043F4803313606FE703F18043A3F53C3391
:100EF0001A6842F480221A601A6842F480321A603A
:100F000062E7FFF73FFB07461E4B1B6813F4003FE9
:100F1000C5D0FFF737FBC01B6428F5D9032307E2D0
:100F2000022EC4D1174B1B6813F4806F03D0E36803
:100F3000002B00F0FA81134A536823F0FE43216925
:100F400043EA01635360236813F0080F56D06369C6
:100F5000002B3CD00B4AD2F8943043F00103C2F886
:100F60009430FFF70FFB0646064BD3F8943013F08E
:100F7000020F43D1FFF706FB801B0228F4D903239D
:100F8000D6E100BF001002409036000808000020A3
:100F900004000020B34A536823F0FE43216943EA6A
:100FA00001635360CFE7AF4A136823F48073136083
:100FB000FFF7E8FA0646AB4B1B6813F4806FC2D00C
:100FC000FFF7E0FA801B0228F5D90323B0E1A54A18
:100FD000D2F8943023F00103C2F89430FFF7D2FA2C
:100FE0000646A04BD3F8943013F0020F06D0FFF75B
:100FF000C9FA801B0228F4D9032399E1236813F06E
:10100000040F7AD0974B9B6D13F0805F0BD1954BFB
:101010009A6D42F080529A659B6D03F08053019364
:10102000019B012600E000268F4B1B6813F4807F94
:1010300026D0A368012B37D0052B3DD0894BD3F8A0
:10104000902022F00102C3F89020D3F8902022F0E3
:101050000402C3F89020A368002B3BD0FFF792FA5C
:101060000746804BD3F8903013F0020F44D1FFF7BE
:1010700089FAC01B41F288339842F2D9032357E121
:10108000794A136843F480731360FFF77BFA0746CD
:10109000754B1B6813F4807FCBD1FFF773FAC01B2D
:1010A0000228F5D9032343E16E4AD2F8903043F089
:1010B0000103C2F89030CEE76A4BD3F8902042F09B
:1010C0000402C3F89020D3F8902042F00102C3F844
:1010D0009020C0E7FFF756FA0746624BD3F89030EE
:1010E00013F0020F08D0FFF74DFAC01B41F288330E
:1010F0009842F2D903231BE1E6B9236813F0200FCD
:1011000035D0636AE3B1574AD2F8983043F001030F
:10111000C2F89830FFF736FA0646524BD3F89830AB
:1011200013F0020F23D1FFF72DFA801B0228F4D908
:101130000323FDE04B4A936D23F080539365DCE776
:10114000484AD2F8983023F00103C2F89830FFF7EC
:1011500019FA0646434BD3F8983013F0020F06D025
:10116000FFF710FA801B0228F4D90323E0E0A36AFA
:10117000002B00F0DC80022B27D00C2D00F0E38048
:10118000384B1A6822F080721A601B6813F0205FD7
:1011900004D1344AD36823F00303D360314AD368BF
:1011A00023F0887323F48033D360FFF7EBF9044610
:1011B0002C4B1B6813F0007F00F0AC80FFF7E2F9C6
:1011C000001B0228F4D90323B2E0264BDB6803F0AE
:1011D0000301E26A91420FD00C2D00F0AC80214B4C
:1011E0001B6813F0806F40F0A8801E4B1B6813F043
:1011F000805F3BD001239BE003F0F002216B0139BB
:10120000B2EB011FE8D103F4FE42616BB2EB012F98
:10121000E2D103F07842A16BB2EBC16FDCD103F4F1
:10122000C001E26B5208013AB1EB425FD4D103F046
:10123000C063226C5208013AB3EB426FCCD1094B28
:101240001B6813F0007F7AD1064B1A6842F0807257
:101250001A60DA6842F08072DA60FFF793F90446A8
:1012600051E000BF0010024000700040374A136890
:1012700023F080731360FFF785F90546334B1B6835
:1012800013F0007F06D0FFF77DF9401B0228F5D947
:1012900003234DE02D4AD3682D491940E36A206BA2
:1012A000013843EA0013606B43EA0023E06B400817
:1012B000013843EA4053206C4008013843EA406358
:1012C000A06B43EAC0630B43D360136843F08073A1
:1012D0001360D36843F08073D360FFF753F904467B
:1012E0001A4B1B6813F0007F06D1FFF74BF9001B68
:1012F0000228F5D903231BE0002319E0FFF742F988
:10130000001B02281DD8114B1B6813F0007FF5D07D
:1013100000230DE000230BE0012318467047012352
:1013200006E0012304E0012302E0012300E00023A2
:10133000184603B0F0BD0123FAE70123F8E70023C4
:10134000F6E70323F4E70123F2E700BF00100240B1
:101350000C809D01002800F0DE80F8B50446704B3B
:101360001B6803F00F038B420CD26D4A136823F005
:101370000F030B431360136803F00F038B4201D07C
:101380000120F8BD0D46266816F0010674D063688A
:10139000032B0DD0022B34D0002B46D103F1804318
:1013A00003F504331B6813F0020F30D10120E8E786
:1013B0005C4B1B6813F0007F01D10120E1E7FFF7D0
:1013C00099FB594B984237D9564B9B6813F0F00F55
:1013D00008D1544A936823F0F00343F080039360EC
:1013E00080262EE0266816F002062AD0A3682BBBC2
:1013F0004C4A936823F0F00343F080039360802607
:101400001FE0484B1B6813F4003F00F08680FFF795
:10141000F9FB454B984213D9424A936823F0F003F5
:1014200043F08003936080260BE03E4B1B6813F46F
:10143000806FECD10120A4E7002602E0002600E046
:101440000026384A936823F0030361680B439360D6
:10145000FFF798F80746334B9B6803F00C0362686C
:10146000B3EB820F08D0FFF78DF8C01B41F2883331
:101470009842F0D9032084E7236813F0020F19D0B3
:10148000284A936823F0F003A1680B439360244B30
:101490001B6803F00F03AB4214D9214A136823F0F1
:1014A0000F032B431360136803F00F03AB4209D003
:1014B000012066E7802EEAD11A4A936823F0F003F0
:1014C0009360E4E7236813F0040F06D0154A93688D
:1014D00023F4E063E1680B439360236813F0080F83
:1014E00007D0104A936823F46053216943EAC1038B
:1014F0009360FFF787FB0B4B9B68C3F303130B4A07
:10150000D35C03F01F03D840094B1860094B1868DF
:10151000FEF7F6FF35E701207047012031E700BFF5
:10152000002002400010024000B4C40490360008BD
:101530000800002004000020014B1868704700BF1D
:101540000800002008B5FFF7F7FF054B9B68C3F3C1
:101550000223044AD35C03F01F03D84008BD00BF38
:1015600000100240A036000808B5FFF7E5FF054B64
:101570009B68C3F3C223044AD35C03F01F03D84023
:1015800008BD00BF00100240A0360008F8B5554B5A
:10159000DB6813F0030F0ED0524BDB6803F003033C
:1015A0000268934202D001252846F8BD002A00F0C7
:1015B0009780002516E00368022B56D0032B5BD0E2
:1015C000012B01D001250BE0464A126812F0020FF0
:1015D0005ED0444CE26822F003021343E36000252E
:1015E000002DE1D10F4604463E4A136823F0805394
:1015F0001360FEF7C7FF06463A4B1B6813F0005F07
:1016000005D0FEF7BFFF801B0228F5D90325002D6A
:10161000CAD1002F3ED133484369334A1A40A168EA
:10162000E368DB0643EA01236168013943EA0113F9
:10163000134343612B4A136843F080531360FEF752
:10164000A1FF0646274B1B6813F0005F05D1FEF78C
:1016500099FF801B0228F5D90325002DA4D1214A2A
:101660005369A1690B4353619EE71E4A126812F445
:10167000806FAED10125B3E71A4A126812F4003F19
:10168000A7D1184A126812F4802FA2D10125A7E72A
:101690000125A5E7012F11D012484369134A1A40CA
:1016A000A16863695B08013B5B0643EA012361684B
:1016B000013943EA011313434361BBE70948436916
:1016C0000B4A1A40A16823695B08013B5B0543EAAA
:1016D00001236168013943EA011313434361A9E718
:1016E000012561E7001002400F80FF070F80FFF91E
:1016F0000F809FFFF8B5554BDB6813F0030F0ED03A
:10170000524BDB6803F003030268934202D00125C9
:101710002846F8BD002A00F09780002516E00368EF
:10172000022B56D0032B5BD0012B01D001250BE0FF
:10173000464A126812F0020F5ED0444CE26822F072
:1017400003021343E3600025002DE1D10F46044658
:101750003E4A136823F080631360FEF713FF0646CA
:101760003A4B1B6813F0006F05D0FEF70BFF801B90
:101770000228F5D90325002DCAD1002F3ED13348C8
:101780000369334A1A40A168E368DB0643EA012390
:101790006168013943EA0113134303612B4A13685B
:1017A00043F080631360FEF7EDFE0646274B1B688F
:1017B00013F0006F05D1FEF7E5FE801B0228F5D976
:1017C0000325002DA4D1214A1369A1690B4313619C
:1017D0009EE71E4A126812F4806FAED10125B3E76E
:1017E0001A4A126812F4003FA7D1184A126812F47C
:1017F000802FA2D10125A7E70125A5E7012F11D050
:1018000012480369134A1A40A16863695B08013BE7
:101810005B0643EA01236168013943EA011313437C
:101820000361BBE7094803690B4A1A40A1682369B1
:101830005B08013B5B0543EA01236168013943EA28
:10184000011313430361A9E7012561E7001002407A
:101850000F80FF070F80FFF90F809FFF2DE9F041F8
:1018600082B00446036813F4006F2FD0C36E402B80
:1018700010D008D8FBB1202B09D100212030FFF770
:1018800085FE06461CE0602B1ED0802B1CD0012755
:101890003E461DE0604AD36843F48033D36000269F
:1018A0005D4AD2F89C3023F0E003E16E0B43C2F8AE
:1018B0009C3000270CE000210430FFF71BFF064698
:1018C000002EEDD0374603E00026E9E700273E462C
:1018D000236813F4805F29D0236FB3F5007F15D000
:1018E0000BD8002B7AD0B3F5807F0CD1002104F106
:1018F0002000FFF74BFE06460DE0B3F5407F0AD00F
:10190000B3F5806F07D001273E460FE0424AD36807
:1019100043F48033D360002E66D13F4AD2F89C3026
:1019200023F4E063216F0B43C2F89C30236813F467
:10193000003F7AD0384B9B6D13F0805F56D1364B09
:101940009A6D42F080529A659B6D03F0805301932B
:10195000019B4FF00108314A136843F48073136010
:10196000FEF710FE05462D4B1B6813F4807F05D152
:10197000FEF708FE401B0228F5D90326002E4FD1A2
:10198000254BD3F8903013F4407316D0D4F8902040
:101990009A4212D0204AD2F8903023F44073D2F801
:1019A000901041F48031C2F89010D2F8901021F4D8
:1019B0008031C2F89010C2F8903013F0010F18D1A6
:1019C000002E40F06281144AD2F8903023F4407324
:1019D000D4F890100B43C2F8903022E00021201D73
:1019E000FFF788FE064696E737469FE74FF0000868
:1019F000B1E7FEF7C7FD0546074BD3F8903013F06B
:101A0000020FDDD1FEF7BEFD401B41F28833984244
:101A1000F2D90326D4E700BF001002400070004056
:101A20003746B8F1000F40F03281236813F0010F00
:101A300008D0BD4AD2F8883023F00303E16B0B4392
:101A4000C2F88830236813F0020F08D0B64AD2F8E3
:101A5000883023F00C03216C0B43C2F888302368D4
:101A600013F0040F08D0B04AD2F8883023F03003C6
:101A7000616C0B43C2F88830236813F0080F08D05C
:101A8000A94AD2F8883023F0C003A16C0B43C2F8F6
:101A90008830236813F0100F08D0A34AD2F888309A
:101AA00023F44073E16C0B43C2F88830236813F0D1
:101AB000200F08D09C4AD2F8883023F44063216D6F
:101AC0000B43C2F88830236813F4007F08D0964A8D
:101AD000D2F8883023F44023616E0B43C2F888307B
:101AE000236813F4806F08D08F4AD2F8883023F42B
:101AF0004013A16E0B43C2F88830236813F0400FE7
:101B000008D0894AD2F8883023F44053616D0B43E2
:101B1000C2F88830236813F0800F08D0824AD2F8C8
:101B2000883023F44043A16D0B43C2F8883023680A
:101B300013F4807F08D07C4AD2F8883023F44033F5
:101B4000E16D0B43C2F88830236813F4801F08D07E
:101B5000754AD2F89C3023F00303216E0B43C2F880
:101B60009C30236813F4005F11D06F4AD2F888309C
:101B700023F04063616F0B43C2F88830636FB3F1A9
:101B8000006F00F08A80B3F1806F00F08B802368D3
:101B900013F4002F1FD0A36FB3F5804F00F08B809C
:101BA000614AD2F89C3023F48043C2F89C30D2F8CA
:101BB000883023F04063A16F0B43C2F88830A36FD5
:101BC000B3F1006F7FD0B3F5804F00F08280B3F1A6
:101BD000806F00F08480236813F4802F0FD0524A66
:101BE000D2F8883023F04063E16F0B43C2F88830AD
:101BF000E36FB3F1006F7BD0B3F1806F7DD02368CA
:101C000013F4804F0ED0484AD2F8883023F0405366
:101C1000D4F880100B43C2F88830D4F88030B3F188
:101C2000805F73D0236813F4803F09D03E4AD2F816
:101C30009C3023F00403D4F884100B43C2F89C308A
:101C4000236813F4001F09D0374AD2F89C3023F0E0
:101C50001803D4F888100B43C2F89C30236813F0A3
:101C6000807F0ED0304AD2F89C3023F44013D4F851
:101C70008C100B43C2F89C30D4F88C30B3F5001FA5
:101C80004CD0384602B0BDE8F0813746C9E6264A56
:101C9000936D23F080539365C7E6D36843F48013B4
:101CA000D36074E70121201DFFF724FD00283FF4D5
:101CB0006EAF07466BE71C4AD2F89C3043F4804372
:101CC000C2F89C307BE7184AD36843F48013D36092
:101CD00081E7154AD36843F48033D3607BE7012161
:101CE000201DFFF707FD00283FF475AF074672E798
:101CF000D36843F48013D36081E70121201DFFF7EF
:101D0000F9FC00283FF47BAF074678E70221201D4D
:101D1000FFF7F0FC002885D0074683E7D36843F43B
:101D20008013D360ADE700BF001002400000000048
:101D30002DE9F0480446016883680269134342694B
:101D40001343C2691343426E134308689D4A02401D
:101D50001A430A602268536823F44053E1680B4336
:101D60005360A1692268984B9A4201D0236A1943B3
:101D7000936823F06E4323F430630B43936022682F
:101D8000D36A23F00F03616A0B43D36223688F4A3F
:101D9000934227D08E4A934238D08E4A93424ED0F7
:101DA0008D4A934261D08D4A934274D0864A9342C1
:101DB00000F08A801025844A934200F0AA80E369EB
:101DC000B3F5004F00F07083082D00F23286DFE893
:101DD00015F0C704170555053006AD053006300669
:101DE0003006EB0502F55842D2F8882002F00302D3
:101DF000032A09D8DFE802F0020481060125DAE7A8
:101E00000425D8E70825D6E71025D4E702F5E63201
:101E1000D2F8882002F00C020C2A0ED8DFE802F07B
:101E2000070D0D0D090D0D0D6F0D0D0D0B0000258E
:101E3000C1E70425BFE70825BDE71025BBE702F58C
:101E4000E432D2F8882002F03002102A09D005D9F5
:101E5000202A56D0302A06D10825ACE71AB9002529
:101E6000A9E70425A7E71025A5E702F5E232D2F895
:101E7000882002F0C002402A09D005D9802A42D029
:101E8000C02A06D1082596E71AB9002593E704254C
:101E900091E710258FE702F5E032D2F8882002F4AE
:101EA0004072B2F5807F0BD007D9B2F5007F2CD0FD
:101EB000B2F5407F06D108257DE71AB900257AE7FB
:101EC000042578E7102576E702F5C832D2F8882095
:101ED00002F44062B2F5806F0BD007D9B2F5006F03
:101EE00015D0B2F5406F06D1082564E71AB9002570
:101EF00061E704255FE710255DE702255BE7022522
:101F000059E7022557E7022555E7022553E7022541
:101F100051E7082D00F29085DFE815F009008E05E5
:101F200068008E0586008E058E058E05BD00FFF7C4
:101F300009FB636AD3B1012B36D0022B36D0032BB9
:101F400036D0042B36D0052B36D0062B36D0072BB7
:101F500036D0082B44D0092B44D00A2B44D00B2B6D
:101F600001D0012303E04FF4807300E00123B0FBB4
:101F7000F3F0002800F06285626802EB42038342BE
:101F800000F25E85B0EB023F00F25C85082D00F2A6
:101F90008882DFE815F0D400860233018602CB0187
:101FA00086028602860222020223E0E70423DEE79D
:101FB0000623DCE70823DAE70A23D8E70C23D6E771
:101FC0001023D4E7F369FFCF0080004000380140C0
:101FD0000044004000480040004C004000500040D9
:101FE0002023C4E74023C2E78023C0E7636A002BB5
:101FF0006ED0012B6ED0022B6ED0032B6ED0042B33
:102000006ED0052B6ED0062B6ED0072B6ED0082B12
:102010006ED0092B6ED00A2B6ED00B2B01D0AE48A0
:10202000A7E74FF22440A4E7FEF7ECFD636AD3B1C3
:10203000012B1CD0022B1CD0032B1CD0042B1CD03A
:10204000052B1CD0062B1CD0072B1CD0082B1CD01A
:10205000092B1CD00A2B1CD00B2B01D0012303E031
:102060004FF4807300E00123B0FBF3F081E702231B
:10207000FAE70423F8E70623F6E70823F4E70A2340
:10208000F2E70C23F0E71023EEE72023ECE74023F0
:10209000EAE78023E8E7636A83B3012B31D0022BA0
:1020A00032D0032B33D0042B34D0052B35D0062B64
:1020B00036D0072B37D0082B38D0092B39D00A2B34
:1020C0003AD00B2B02D04FF4004052E7802050E76B
:1020D00081484EE781484CE781484AE7814848E714
:1020E000814846E7814844E7814842E7814840E724
:1020F00081483EE781483CE781483AE74FF4004099
:1021000037E74FF4804034E74FF4005031E741F2B5
:1021100055502EE74FF480502BE740F6CC4028E78F
:1021200040F6AA2025E74FF4006022E74FF48060D4
:102130001FE74FF400701CE74FF4807019E7FFF7BA
:1021400001FA636AE3B1012B3AD0022B3BD0032B97
:102150003CD0042B3DD0052B3ED0062B3FD0072B87
:1021600040D0082B41D0092B42D00A2B43D00B2B57
:1021700002D00122002305E04FF48072002301E029
:10218000012200230021FEF73BF80F0247EA106707
:1021900006026268500800252B4616EB000B47F13B
:1021A000000C58466146FEF72BF803462846A3F577
:1021B0004071544A914200F247842268D36001E39F
:1021C00002220023DEE704220023DBE706220023AD
:1021D000D8E708220023D5E70A220023D2E70C2201
:1021E0000023CFE710220023CCE720220023C9E7F9
:1021F00040220023C6E780220023C3E7636AFBB1C5
:10220000012B2DD0022B30D0032B33D0042B36D012
:10221000052B39D0062B3CD0072B3FD0082B42D0C2
:10222000092B45D00A2B48D00B2B04D0DFF8D8B0AF
:102230004FF0000C08E0DFF8A0B04FF0000C03E016
:10224000DFF8C4B04FF0000C560800252B461BEBFE
:1022500006004CF10001FDF7D3FF03462846A6E730
:10226000DFF8A8B04FF0000CEEE7DFF8A4B04FF0B5
:10227000000CE9E70FF2500CDCE900BCE4E7DFF802
:1022800094B04FF0000CDFE7DFF88CB04FF0000C9B
:10229000DAE70FF23C0CDCE900BCD5E7DFF87CB0F4
:1022A0004FF0000CD0E7DFF878B04FF0000CCBE730
:1022B000DFF870B04FF0000CC6E7DFF86CB04FF0FD
:1022C000000CC1E7AFF3008000AAB02800000000B6
:1022D00000555814000000000024F40000127A0099
:1022E00000093D00AAB0280080841E00006A180082
:1022F0005558140040420F0020A1070090D0030061
:1023000048E80100FFFC0F00000024F40000127AEE
:102310000000093D0080841E00006A180040420F42
:102320000020A1070090D0030048E801FEF76AFCF6
:10233000636AE3B1012B32D0022B33D0032B34D0AC
:10234000042B35D0052B36D0062B37D0072B38D0B1
:10235000082B39D0092B3AD00A2B3BD00B2B02D0BB
:102360000122002305E04FF48072002301E00122E6
:1023700000230021FDF744FF0F0247EA1067060221
:102380006268500800252B4616EB000B47F1000C45
:1023900058466146FDF734FF0346284607E7022208
:1023A0000023E6E704220023E3E706220023E0E718
:1023B00008220023DDE70A220023DAE70C220023AB
:1023C000D7E710220023D4E720220023D1E74022C0
:1023D0000023CEE780220023CBE7636AFBB1012B09
:1023E0002DD0022B30D0032B33D0042B36D0052B2D
:1023F00039D0062B3CD0072B3FD0082B42D0092BDD
:1024000045D00A2B48D00B2B04D04FF4000B4FF0D3
:10241000000C08E04FF4004B4FF0000C03E04FF4C9
:10242000000B4FF0000C560800252B461BEB060056
:102430004CF10001FDF7E4FE03462846B7E64FF4F1
:10244000800B4FF0000CEEE74FF4001B4FF0000C38
:10245000E9E7DFF88CB44FF0000CE4E74FF4801BA1
:102460004FF0000CDFE7DFF87CB44FF0000CDAE748
:10247000DFF874B44FF0000CD5E74FF4002B4FF0A9
:10248000000CD0E74FF4802B4FF0000CCBE74FF45B
:10249000003B4FF0000CC6E74FF4803B4FF0000CC0
:1024A000C1E70120002382E6082D00F25681DFE813
:1024B00015F00900570096005401CF005401540153
:1024C00054010E01FFF73EF8636AD3B1012B33D0FC
:1024D000022B33D0032B33D0042B33D0052B33D036
:1024E000062B33D0072B33D0082B33D0092B33D016
:1024F0000A2B33D00B2B01D0012303E04FF4807360
:1025000000E00123B0FBF3F06268530803EB4003E3
:10251000B3FBF2F39BB20020A3F110014FF6EF7270
:10252000914200F293829AB222F00F02C3F3420367
:1025300013432268D36045E10223E3E70423E1E784
:102540000623DFE70823DDE70A23DBE70C23D9E7CF
:102550001023D7E72023D5E74023D3E78023D1E713
:10256000FFF702F8636AD3B1012B24D0022B24D0E9
:10257000032B24D0042B24D0052B24D0062B24D0CD
:10258000072B24D0082B24D0092B24D00A2B24D0AD
:102590000B2B01D0012303E04FF4807300E00123F3
:1025A000B0FBF3F06268530803EB4003B3FBF2F3B4
:1025B0009BB20020B0E70223F2E70423F0E70623F2
:1025C000EEE70823ECE70A23EAE70C23E8E7102309
:1025D000E6E72023E4E74023E2E78023E0E7636ABD
:1025E000CBB1012B20D0022B20D0032B20D0042BE9
:1025F00020D0052B20D0062B20D0072B20D0082B55
:1026000020D0092B20D00A2B20D00B2B01D0A84B97
:1026100002E0A84B00E0A64B626803EB5203B3FB59
:10262000F2F39BB2002077E7A34BF5E7A34BF3E768
:10263000A34BF1E7A34BEFE7A34BEDE7A34BEBE78E
:10264000A34BE9E7A34BE7E7A34BE5E7A34BE3E79E
:10265000FEF7D8FA636AD3B1012B24D0022B24D021
:10266000032B24D0042B24D0052B24D0062B24D0DC
:10267000072B24D0082B24D0092B24D00A2B24D0BC
:102680000B2B01D0012303E04FF4807300E0012302
:10269000B0FBF3F06268530803EB4003B3FBF2F3C3
:1026A0009BB2002038E70223F2E70423F0E7062379
:1026B000EEE70823ECE70A23EAE70C23E8E7102318
:1026C000E6E72023E4E74023E2E78023E0E7636ACC
:1026D000DBB1012B23D0022B24D0032B25D0042BDC
:1026E00026D0052B27D0062B28D0072B29D0082B46
:1026F0002AD0092B2BD00A2B2CD00B2B02D04FF435
:10270000803304E04FF4807301E04FF4803362685B
:1027100003EB5203B3FBF2F39BB20020FCE64FF451
:102720000043F4E74FF48043F1E742F6AA23EEE7D3
:102730004FF40053EBE741F69813E8E741F25453A6
:10274000E5E74FF48053E2E74FF40063DFE74FF42F
:102750008063DCE74FF40073D9E701200023DBE658
:10276000FEF7F0FE636AD3B1012B35D0022B35D0D2
:10277000032B35D0042B35D0052B35D0062B35D087
:10278000072B35D0082B35D0092B35D00A2B35D067
:102790000B2B01D0012203E04FF4807200E00122F4
:1027A000B0FBF2F2636802EB5302B2FBF3F292B2B7
:1027B0000020A2F110014FF6EF73994200F2488118
:1027C0002368DA600122A4F86A20A4F868200022B5
:1027D000E2662267BDE8F0880222E1E70422DFE733
:1027E0000622DDE70822DBE70A22D9E70C22D7E739
:1027F0001022D5E72022D3E74022D1E78022CFE77D
:10280000FEF7B2FE636AD3B1012B23D0022B23D093
:10281000032B23D0042B23D0052B23D0062B23D02E
:10282000072B23D0082B23D0092B23D00A2B23D00E
:102830000B2B01D0012203E04FF4807200E0012253
:10284000B0FBF2F2636802EB5302B2FBF3F292B216
:102850000020AEE70222F3E70422F1E70622EFE7C9
:102860000822EDE70A22EBE70C22E9E71022E7E76E
:102870002022E5E74022E3E78022E1E7636AC3B371
:10288000012B3FD0022B3FD0032B3FD0042B3FD056
:10289000052B3FD0062B3FD0072B3FD0082B3FD036
:1028A000092B3FD00A2B3FD00B2B1FD0024A21E02F
:1028B0000048E80148E801000024F40000127A0012
:1028C0005461510000093D0000D43000AAB0280036
:1028D00080841E0040420F0020A1070090D003001A
:1028E0000055150000CC0C0000AA0A004FF224424B
:1028F00000E0584A636802EB5302B2FBF3F292B273
:10290000002056E7544AF5E7544AF3E7544AF1E702
:10291000544AEFE7544AEDE7544AEBE7544AE9E7F3
:10292000544AE7E7544AE5E7544AE3E7FEF76AF911
:10293000636AD3B1012B23D0022B23D0032B23D0E6
:10294000042B23D0052B23D0062B23D0072B23D0F9
:10295000082B23D0092B23D00A2B23D00B2B01D0FB
:10296000012203E04FF4807200E00122B0FBF2F29A
:10297000636802EB5302B2FBF3F292B2002018E755
:102980000222F3E70422F1E70622EFE70822EDE74F
:102990000A22EBE70C22E9E71022E7E72022E5E72D
:1029A0004022E3E78022E1E7636AD3B1012B22D022
:1029B000022B23D0032B24D0042B25D0052B26D08B
:1029C000062B27D0072B28D0082B29D0092B2AD05B
:1029D0000A2B2BD00B2B02D04FF4004203E08022B5
:1029E00001E04FF40042636802EB5302B2FBF3F2E2
:1029F00092B20020DDE64FF48042F4E74FF400523B
:102A0000F1E741F25552EEE74FF48052EBE740F622
:102A1000CC42E8E740F6AA22E5E74FF40062E2E79D
:102A20004FF48062DFE74FF40072DCE74FF480720E
:102A3000D9E701200022BCE60120C3E60020C1E660
:102A40000120BFE60120BDE60120BBE60120B9E67A
:102A50000120B7E60024F40000127A0000093D00CE
:102A6000AAB0280080841E00006A1800555814007F
:102A700040420F0020A1070090D0030048E8010069
:102A8000836A13F0010F06D00268536823F4003301
:102A9000C16A0B435360836A13F0020F06D00268C9
:102AA000536823F48033016B0B435360836A13F044
:102AB000040F06D00268536823F48023416B0B4354
:102AC0005360836A13F0080F06D00268536823F43A
:102AD0000043816B0B435360836A13F0100F06D0E1
:102AE0000268936823F48053C16B0B439360836A3D
:102AF00013F0200F06D00268936823F40053016C92
:102B00000B439360836A13F0400F0AD00268536846
:102B100023F48013416C0B435360436CB3F5801F67
:102B20000BD0836A13F0800F06D00268536823F439
:102B30000023C16C0B43536070470268536823F451
:102B4000C003816C0B435360EBE72DE9F041044671
:102B50000F4616469846069D2368DB6937EA03034D
:102B60000CBF01230023B3423FD1B5F1FF3FF3D0A7
:102B7000FDF708FDA0EB0800A84222D80DB323689A
:102B80001A6812F0040FE7D0DA6912F4006FE3D08C
:102B90004FF400621A622268136823F4D073136042
:102BA0002268936823F0010393602023C4F88030E7
:102BB000C4F88430C4F88830002384F87C300320C3
:102BC00014E02268136823F4D073136022689368BA
:102BD00023F0010393602023C4F88030C4F88430CC
:102BE000002384F87C30032000E00020BDE8F08161
:102BF00030B583B004460023C0F88830FDF7C2FC2E
:102C0000054623681B6813F0080F0ED123681B6864
:102C100013F0040F17D12023C4F88030C4F8843097
:102C2000002084F87C0003B030BD6FF07E43009339
:102C3000034600224FF400112046FFF786FF0028CC
:102C4000E4D00320EFE76FF07E4300932B46002291
:102C50004FF480012046FFF778FF0028DBD00320E7
:102C6000E1E778B310B50446D0F880300BB32423E5
:102C7000C4F880302268136823F0010313602046F3
:102C8000FFF756F8012813D0A36ABBB9226853682E
:102C900023F4904353602268936823F02A039360DF
:102CA0002268136843F0010313602046FFF7A0FF7A
:102CB00010BD80F87C3000F083FBD8E72046FFF79A
:102CC000DFFEE3E70120704710B485B002461A4BDF
:102CD00093E8030004AC04E903006C46083393E86E
:102CE000030084E80300536EFBB111688B68C3F3E3
:102CF0004263886804A901EB507010F8081CC900F1
:102D000010F8100C91FBF0F1A2F86A1004A90B4422
:102D100013F8081CC90013F8103C91FBF3F3A2F858
:102D2000683005B05DF8044B70470123A2F86A30A3
:102D3000A2F86830F5E700BF5036000890F87C3004
:102D4000012B18D0012380F87C302423C0F8803078
:102D500003681A68196821F00101196022F0005215
:102D60000023436601680A602022C0F8802080F8B2
:102D70007C30184670470220704738B590F87C3098
:102D8000012B1DD00446012380F87C302423C0F899
:102D9000803003681D681A6822F001021A60026818
:102DA000936823F0604319439160FFF78DFF236818
:102DB0001D602023C4F88030002084F87C0038BDDA
:102DC0000220FCE738B590F87C30012B1DD004467A
:102DD000012380F87C302423C0F8803003681D680C
:102DE0001A6822F001021A600268936823F0606397
:102DF00019439160FFF768FF23681D602023C4F822
:102E00008030002084F87C0038BD0220FCE7000000
:102E1000002301330C4A934211D80269002AF8DAE0
:102E2000036943F00103036100230133064A93421F
:102E300007D8026912F0010FF7D100207047032074
:102E400070470320704700BF400D030084B010B5E9
:102E5000044603A880E80E00089B012B1CD1A36B3D
:102E600023F48033A363E36823F4840323F0400353
:102E7000E360E36823F44013E3600F9B012B06D06B
:102E80002046FFF7C5FFBDE8104004B07047E36877
:102E900043F48013E360F3E7E36843F04003E36047
:102EA0002046FFF7B5FF0C9B23B1A36B23F48033BF
:102EB000A363E8E7A36B43F48033A363E3E783688A
:102EC00023F0010383600020704708B5C36823F036
:102ED000C043C360012909D069B9C36843F0804386
:102EE000C3603220FDF754FB002008BDC36843F0E7
:102EF0000053C360F5E70120F7E70000890141F0C6
:102F00002001016100230133054A934205D802697B
:102F100012F0200FF7D1002070470320704700BF48
:102F2000400D03001023036100230133054A93423F
:102F300005D8026912F0100FF7D100207047032066
:102F4000704700BF400D0300D0F800381943C0F8A7
:102F5000001800207047000084B02DE9F0410446BD
:102F600007A880E80E002546002306E003F1400292
:102F700004EB82020021516001330E2BF6D9119B24
:102F80008BBBD4F8043843F00203C4F80438A36BB5
:102F900023F40013A363236843F0400323602368F2
:102FA00043F0800323600023C4F8003E04F500666C
:102FB000D4F80038C4F8003803212046FFF7C4FFD6
:102FC00010212046FFF79AFF804608B14FF0010814
:102FD0002046FFF7A7FF08B14FF001080023336137
:102FE0007361F3610FE0A36B43F40013A363DAE7AB
:102FF000C3B94FF00060C2F8000900220A614FF621
:103000007F328A6001330799994210D905EB431248
:1030100002F51061D2F800090028E9DB0020C2F8AF
:103020000009EAE74FF09040C2F80009E5E7002305
:103030000AE0BBB14FF09047C2F8007B002202616A
:103040004FF67F3282600133994210D905EB43126B
:1030500002F53060D2F8007B002FEADB0027C2F8CF
:10306000007BEBE74FF00067C2F8007BE6E73369CF
:1030700023F4807333610023A3616FF080436361A5
:10308000A36943F01003A361A2690C4B1343A3612E
:103090000D9B1BB1A36943F00803A361119B012B96
:1030A00004D04046BDE8F04104B07047A36943F046
:1030B000804343F00403A361F3E700BF00383C8082
:1030C00008B5D0F8043843F00203C0F804380320F0
:1030D000FDF75EFA002008BDF0B58DB0002507951C
:1030E000089509950A950B95364CE36C43F004035B
:1030F000E364E36C03F004030193019BE36C43F08E
:103100008003E364E36C03F080030293029BE36CAF
:1031100043F00203E364E36C03F002030393039BB5
:10312000E36C43F00803E364E36C03F008030493E7
:10313000049BE36C43F04003E364E36C03F040035F
:103140000593059BFDF7CEFCE36C43F00103E364BC
:10315000E36C03F001030693069B1B4F2A464FF4D2
:1031600081413846FDF767FB184C2A46202120464E
:10317000FDF761FB4FF400530793154B0893099536
:1031800007A91448FDF774FA4FF481430793012609
:10319000089609950A9507A93846FDF769FA20238C
:1031A0000793089609950A9507A92046FDF760FA46
:1031B000402307930895099507A92046FDF758FA7B
:1031C0000DB0F0BD00100240000400480018004897
:1031D000000011100008004838B5104C104B236057
:1031E000104B63604FF08053A3600025E5602561BC
:1031F0000C236361A56125626562A5626566204650
:10320000FFF72FFD29462046FFF7B7FD2946204648
:10321000FFF7D8FD0448FFF791FD38BDC404002036
:1032200000800040243303005005002038B5104CC6
:10323000104B23604FF4E13363600025A560E56027
:1032400025610C236361A561E56125626562A56264
:103250002046FFF706FD29462046FFF78EFD29464A
:103260002046FFF7AFFD2046FFF768FD38BD00BFE1
:10327000300000200048004008B509484FF0A04346
:10328000036006234360022383610123C36100229C
:103290000262426283620263C362FDF7D1FA08BD33
:1032A000BC000020F0B5BDB0442200212BA800F0E6
:1032B000BBF9002426942794289429942A949422D4
:1032C000214601A800F0B0F92046FDF77DFB01265C
:1032D0002B964FF4A0232C93022535950327369780
:1032E00037961E23389339953A953B952BA8FDF7D1
:1032F000E3FC0F232693279728944FF480632993A8
:103300002A94052126A8FEF725F842F2240301930A
:10331000129415944FF080631E93029703960C232A
:1033200004930595069507954FF48013089301A81B
:10333000FEF794FA3DB0F0BD08B5FDF707F9FFF7C9
:10334000B1FFFFF7C9FEFFF747FFFFF76FFFFFF77A
:1033500093FF4FF400510C48FDF766FA0128F8D1AD
:103360000A4C012280212046FDF765FA4FF47A705D
:10337000FDF70EF9002280212046FDF75CFA4FF49C
:103380007A70FDF705F9E4E70008004800040048FA
:1033900082B00A4B1A6E42F001021A661A6E02F0EF
:1033A00001020092009A9A6D42F080529A659B6DDC
:1033B00003F080530193019B02B07047001002405C
:1033C00000B58BB0002305930693079308930993E8
:1033D0000368274A934205D0264A934227D00BB070
:1033E0005DF804FB244BDA6D42F00102DA65DA6D18
:1033F00002F001020192019ADA6C42F04002DA64B2
:10340000DB6C03F040030293029BFDF76BFB4FF470
:10341000C0730593022306930023079303230893A5
:103420000823099305A91548FDF722F9D7E7124BA0
:103430009A6D42F480229A659A6D02F4802203927A
:10344000039ADA6C42F00802DA64DB6C03F00803DA
:103450000493049B4FF440730593022306930323C4
:1034600008930723099305A90548FDF701F9B6E775
:103470000080004000480040001002400018004852
:10348000000C004810B588B0002303930493059303
:10349000069307930368B3F1A04F01D008B010BDA5
:1034A000214CE36C43F00103E364E36C03F001039C
:1034B0000093009B4FF4E8530393022304930323E8
:1034C00006930A23079303A94FF09040FDF7D0F825
:1034D0004FF40073039300230493059303A94FF063
:1034E0009040FDF7C5F8E36C43F48053E364E36C6C
:1034F00003F480530193019BA36D13F0805F02D00E
:10350000FDF7E8FACAE7A36D43F08053A365A36D06
:1035100003F080530293029BFDF7DCFAA36D23F0C6
:103520008053A365BAE700BF001002407047FEE772
:10353000FEE7FEE7FEE770477047704708B5FDF706
:1035400015F808BD0F49D1F8883043F47003C1F86D
:1035500088300D4B1A6842F001021A600020986012
:103560001A6822F0A85222F410221A604FF48052F6
:10357000DA601A6822F480221A6098614FF00063C2
:103580008B60704700ED00E000100240DFF834D09F
:10359000002103E00C4B5B58435004310B480C4BAB
:1035A00042189A42F6D30B4A02E0002342F8043B49
:1035B000094B9A42F9D3FFF7C5FF00F011F8FFF766
:1035C000BBFEFEE700000A20C03600080000002015
:1035D0001000002010000020DC050020FEE70000A5
:1035E00070B50D4E0D4CA41BA4100025A54209D1A9
:1035F0000B4E0C4C00F020F8A41BA4100025A54293
:1036000005D170BD56F8253098470135EEE756F8DC
:10361000253098470135F2E7B0360008B03600088B
:10362000B0360008B436000802440346934200D185
:10363000704703F8011BF9E7F8B500BFF8BC08BCF8
:103640009E467047F8B500BFF8BC08BC9E46704760
:10365000010101030701000008040204080101013F
:10366000A0860100400D0300801A060000350C0002
:1036700040420F0080841E0000093D0000127A00C5
:103680000024F40000366E010048E801006CDC0202
:103690000000000000000000010203040607080902
:0836A000000000000102030418
:0836A80088CBFF7F0100000048
:0836B000E50100080000000024
:0836B800C10100080000000040
:1036C000010000001000000000093D0000000000A3
:040000050800358D2D
:00000001FF
